:100000009000B0759000C2B0C2B2C2B4D2B17589CE
:1000100020758BCF758DCF7400D2B011ABC2B030CC
:10002000B1FDD28E308FFDC28EC28F04B41906D2BC
:1000300092C2908029D2B1758920758BCF758DCFF2
:100040007400D2B011ABC2B030B1FDD28E308FFD92
:10005000C28EC28F04B4192FD290C2928000D2B542
:10006000758920758BCF758DCF7400D2B411ABC25A
:10007000B430B5FDD28E308FFDC28EC28F04B40570
:1000800006C290C2928012D290D2924006D290D2F2
:10009000928006C290C292800020B186FC0111209D
:1000A000B5D2FC80B920B3A3FC808F7E02DEFE2295
:0A00B0003F065B4F666D7D077F6F12
:00000001FF
